S01600004C6F67696320416E616C797A65722E73726563BA
S11300000C942A000C9447000C9447000C9447006D
S11300100C9447000C9447000C9447000C94470040
S11300200C9447000C9447000C9447000C943E0138
S11300300C9447000C947A010C9447000C944700EC
S11300400C9447000C9447000C9447000C94470010
S11300500C94470011241FBECFE5D4E0DEBFCDBF12
S113006010E0A0E6B0E0E6E8F5E002C005900D92ED
S1130070A236B107D9F720E0A2E6B0E001C01D9294
S1130080A838B207E1F70E94AD020C94C1020C94A7
S113009000000E94BE010E9463000E94F9010E94B8
S11300A014017894089541E050E060E070E083E446
S11300B090E00C94BE0040E050E060E070E083E427
S11300C090E00C94BE0041E050E060E070E083E416
S11300D090E00E946D000C945B00843409F43FC0EE
S11300E030F48234F1F060F5813461F008958236A1
S11300F0C1F018F4813631F00895833609F184365D
S113010071F108952AB381E090E001C0880F6A95E7
S1130110EAF7413011F4822B02C0809582238ABB16
S1130120089527B381E090E001C0880F6A95EAF74B
S1130130413011F4822B02C08095822387BB08953D
S113014024B381E090E001C0880F6A95EAF741305A
S113015011F4822B02C08095822384BB089521B3BD
S113016081E090E001C0880F6A95EAF7413011F40C
S1130170822B02C08095822381BB0895843409F4C4
S11301803FC030F48234F1F060F5813461F00895B9
S11301908236C1F018F4813631F00895833609F1BE
S11301A0843671F108952BB381E090E001C0880F8B
S11301B06A95EAF7413011F4822B02C080958223BC
S11301C08BBB089528B381E090E001C0880F6A9545
S11301D0EAF7413011F4822B02C08095822388BB58
S11301E0089525B381E090E001C0880F6A95EAF78D
S11301F0413011F4822B02C08095822385BB08957F
S113020022B381E090E001C0880F6A95EAF741309B
S113021011F4822B02C08095822382BB08951DBCF9
S11302201CBC1092620008958EB541E060E00E940B
S1130230BE008EB541E061E00E94BE008EB540E094
S113024062E00E94BE000E940F018FB540E060E0B2
S11302500E94BE008FB540E061E00E94BE008EB5F2
S113026040E063E00E94BE008EB540E064E00E947E
S1130270BE0089B741E062E00C94BE001F920F9269
S11302800FB60F9211242F934F935F938F939F93E5
S1130290EF93FF93F8942CB1409163005091640064
S11302A0809165009091660048175907B0F4203298
S11302B0A1F08091630090916400E0916700F09157
S11302C06800E80FF91F2083809163009091640017
S11302D0019690936400809363007894FF91EF916A
S11302E09F918F915F914F912F910F900FBE0F901F
S11302F01F9018951F920F920FB60F9211242F93EF
S11303003F938F939F93EF93FF93F89480916900A9
S113031090916A00019690936A00809369002091FD
S1130320690030916A0080916B0090916C002817ED
S1130330390760F48091690090916A00E0916D0042
S1130340F0916E00E80FF91F80818CB97894FF91C9
S1130350EF919F918F913F912F910F900FBE0F902E
S11303601F901895FC01808180BD818189B98281AB
S11303708BB983818AB9848180BD0895CF93DF933B
S113038000D000D01F92CDB7DEB783E38A831982F1
S11303901B8288ED8C8386E88D83CE0101960E94B2
S11303A0B2010F900F900F900F900F90DF91CF91AB
S11303B0089590936E0080936D0070936C00609329
S11303C06B0010926A00109269005D9BFECFFC01E5
S11303D080818CB908954091690050916A00209100
S11303E06B0030916C0081E04217530708F480E001
S11303F008950E941401109260000895CF92DF9234
S1130400EF92FF920F931F93CF93DF93809160003D
S1130410813091F038F0823009F450C0833009F40F
S113042087C092C01ABA2091860099B3909386002F
S113043081E0291340C03CC080917600811102C044
S11304400E940F011ABAE091760089B3F0E0ED57EB
S1130450FF4F8083E09176004CB55DB58CB59DB5BA
S11304602091870084E0E89FF0011124E958FF4FB0
S1130470552730E0AFEFBFEF0E94B202DC01CB01A1
S1130480840F951FA11DB11D33E0880F991FAA1F6A
S1130490BB1F3A95D1F780839183A283B383809164
S11304A076008F5F8093760080917600833010F41D
S11304B080E001C082E08093600046C003E810E061
S11304C0C7E7D0E083E8E82E80E0F82E90E4D92E48
S11304D02BE3C22ED0926F00F80181918F01805DD1
S11304E08093700089919991A991B99120E32B0F80
S11304F02093710020E32A0F2093720020E3290F38
S113050020937300805D80937400C092750067E04F
S113051070E08FE690E00E94D9010E94EB018823ED
S1130520E1F30E945300EC16FD06A1F6109276004A
S113053010926000DF91CF911F910F91FF90EF9087
S1130540DF90CF900C940F01DF91CF911F910F9109
S1130550FF90EF90DF90CF9008950E9449000E9491
S1130560FE01FDCFA29FB001B39FC001A39F700DF8
S1130570811D1124911DB29F700D811D1124911DA7
S10905800895F894FFCF7A
S105058601006E
S9030000FC
