:100000000C942A000C9447000C9447000C94470071
:100010000C9447000C9447000C9447000C94470044
:100020000C9447000C9447000C9447000C948501F5
:100030000C9447000C94C1010C9447000C944700A9
:100040000C9447000C9447000C9447000C94470014
:100050000C94470011241FBECFE5D4E0DEBFCDBF16
:1000600010E0A0E6B0E0E8E6F8E002C005900D92EE
:10007000A236B107D9F720E0A2E6B0E001C01D9298
:10008000A938B207E1F70E94F4020C9432040C94F0
:1000900000000E9405020E94A8000E9440020E94E7
:1000A0005B017894089541E050E060E070E083E403
:1000B00090E00C94030140E050E060E070E083E4E5
:1000C00090E00C94030141E050E060E070E083E4D4
:1000D00090E00E9403012FE986E891E021508040E2
:1000E0009040E1F700C0000040E050E060E070E0C8
:1000F00083E490E00E9403012FE986E891E021501B
:1001000080409040E1F700C0000041E050E060E036
:1001100070E083E490E00E9403012FE986E891E01B
:10012000215080409040E1F700C0000040E050E0E6
:1001300060E070E083E490E00E9403012FE986E82C
:1001400091E0215080409040E1F700C00000089508
:1001500041E050E060E070E083E490E00E94B20093
:100160000C945B00843409F43FC030F48234F1F025
:1001700060F5813461F008958236C1F018F481365B
:1001800031F00895833609F1843671F108952AB368
:1001900081E090E001C0880F6A95EAF7413011F4E0
:1001A000822B02C0809582238ABB089527B381E009
:1001B00090E001C0880F6A95EAF7413011F4822B74
:1001C00002C08095822387BB089524B381E090E02C
:1001D00001C0880F6A95EAF7413011F4822B02C002
:1001E0008095822384BB089521B381E090E001C013
:1001F000880F6A95EAF7413011F4822B02C080958E
:10020000822381BB0895843409F43FC030F48234E2
:10021000F1F060F5813461F008958236C1F018F490
:10022000813631F00895833609F1843671F10895ED
:100230002BB381E090E001C0880F6A95EAF7413066
:1002400011F4822B02C0809582238BBB089528B3C2
:1002500081E090E001C0880F6A95EAF7413011F41F
:10026000822B02C08095822388BB089525B381E04C
:1002700090E001C0880F6A95EAF7413011F4822BB3
:1002800002C08095822385BB089522B381E090E06F
:1002900001C0880F6A95EAF7413011F4822B02C041
:1002A0008095822382BB08951CBC1DBC1092620005
:1002B0001DBC1CBC089589B741E062E00E940301A7
:1002C0008FB540E060E00E9403018FB540E061E03F
:1002D0000E9403018EB540E063E00E9403018EB5E9
:1002E00040E064E00E9403018EB541E060E00E94BE
:1002F00003018EB541E061E00E9403018EB540E04C
:1003000062E00E9403010C9454011F920F920FB6F9
:100310000F9211242F934F935F938F939F93EF939B
:10032000FF93F8942CB14091630050916400809148
:1003300065009091660048175907B0F42032A1F08B
:100340008091630090916400E0916700F0916800F3
:10035000E80FF91F2083809163009091640001965B
:1003600090936400809363007894FF91EF919F9144
:100370008F915F914F912F910F900FBE0F901F9013
:1003800018951F920F920FB60F9211242F933F933F
:100390008F939F93EF93FF93F894809169009091CE
:1003A0006A00019690936A00809369002091690029
:1003B00030916A0080916B0090916C00281739078A
:1003C00060F48091690090916A00E0916D00F09175
:1003D0006E00E80FF91F80818CB97894FF91EF913E
:1003E0009F918F913F912F910F900FBE0F901F9073
:1003F0001895FC01808180BD818189B982818BB98A
:1004000083818AB9848180BD0895CF93DF9300D022
:1004100000D01F92CDB7DEB783E38A8319821B8297
:1004200088ED8C8386E88D83CE0101960E94F901C8
:100430000F900F900F900F900F90DF91CF91089534
:1004400090936E0080936D0070936C0060936B00CE
:1004500010926A00109269005D9BFECFFC018081C2
:100460008CB908954091690050916A0020916B0009
:1004700030916C0081E04217530708F480E0089542
:100480000E945B01109260000895CF92DF92EF927C
:10049000FF920F931F93CF93DF938FEF8BBB8091CE
:1004A00060008130D9F038F0823009F454C08330D4
:1004B00009F483C090C01ABA409186005091870019
:1004C00089B390E0909387008093860021E04817DD
:1004D000590709F420E0209360007DC01ABAE0912A
:1004E000760089B3F0E0ED57FF4F8083C09176002E
:1004F0004CB55DB58CB59DB52091880084E0C89F52
:10050000E0011124C958DF4F552730E0AFEFBFEFAE
:100510000E942304640F751F811D911D0E942803F2
:100520002DEB37E346E057E30E948E030E94F90269
:10053000688379838A839B83809176008F5F809321
:10054000760080917600833010F480E001C082E074
:100550008093600040C00E94530003E810E0C7E7AA
:10056000D0E083E8E82E80E0F82E90E4D92E2BE34B
:10057000C22ED0926F00F80181918F01809370009C
:1005800089919991A991B991B0937100A09372004A
:100590009093730080937400C092750067E070E0E0
:1005A0008FE690E00E9420020E9432028823E1F34D
:1005B000EC16FD06F1F6109276000E946300109290
:1005C0006000DF91CF911F910F91FF90EF90DF902E
:1005D000CF900C945401DF91CF911F910F91FF9018
:1005E000EF90DF90CF9008950E9449000E9445024D
:1005F000FDCF0E946D0388F09F5798F0B92F99277F
:10060000B751B0F0E1F0660F771F881F991F1AF0FD
:10061000BA95C9F714C0B13091F00E948703B1E0D8
:1006200008950C948703672F782F8827B85F39F0D7
:10063000B93FCCF3869577956795B395D9F73EF496
:1006400090958095709561957F4F8F4F9F4F08953E
:10065000E89409C097FB3EF490958095709561955C
:100660007F4F8F4F9F4F9923A9F0F92F96E9BB2712
:100670009395F695879577956795B795F111F8CF8E
:10068000FAF4BB0F11F460FF1BC06F5F7F4F8F4FF9
:100690009F4F16C0882311F096E911C0772321F0EF
:1006A0009EE8872F762F05C0662371F096E8862F87
:1006B00070E060E02AF09A95660F771F881FDAF7DE
:1006C000880F9695879597F9089557FD9058440F90
:1006D000551F59F05F3F71F04795880F97FB991FA1
:1006E00061F09F3F79F0879508951216130614065E
:1006F000551FF2CF4695F1DF08C0161617061806EB
:10070000991FF1CF86957105610508940895E894C5
:10071000BB2766277727CB0197F908950E94A1038D
:100720000C9412040E94040438F00E940B0420F080
:10073000952311F00C94FB030C94010411240C94E8
:1007400088030E94650370F3959FC1F3950F50E0F5
:10075000551F629FF001729FBB27F00DB11D639F73
:10076000AA27F00DB11DAA1F649F6627B00DA11D19
:10077000661F829F2227B00DA11D621F739FB00DBF
:10078000A11D621F839FA00D611D221F749F33272F
:10079000A00D611D231F849F600D211D822F762FC8
:1007A0006A2F11249F5750409AF0F1F088234AF0A5
:1007B000EE0FFF1FBB1F661F771F881F9150504011
:1007C000A9F79E3F510580F00C94FB030C9488031D
:1007D0005F3FE4F3983ED4F3869577956795B79598
:1007E000F795E7959F5FC1F7FE2B880F911D9695B2
:1007F000879597F9089597F99F6780E870E060E022
:1008000008959FEF80EC089500240A9416161706A9
:1008100018060906089500240A94121613061406F1
:1008200005060895092E0394000C11F4882352F054
:10083000BB0F40F4BF2B11F460FF04C06F5F7F4F0C
:100840008F4F9F4F0895A29FB001B39FC001A39FF8
:10085000700D811D1124911DB29F700D811D1124F9
:08086000911D0895F894FFCFEB
:0208680001008D
:00000001FF
