S01600004C6F67696320416E616C797A65722E73726563BA
S11300000C942A000C9447000C9447000C9447006D
S11300100C9447000C9447000C9447000C94470040
S11300200C9447000C9447000C9447000C94400136
S11300300C9447000C947C010C9447000C944700EA
S11300400C9447000C9447000C9447000C94470010
S11300500C94470011241FBECFE5D4E0DEBFCDBF12
S113006010E0A0E6B0E0E8E9F5E002C005900D92EA
S1130070A236B107D9F720E0A2E6B0E001C01D9294
S1130080A138B207E1F70E94B6020C94CA020C949C
S113009000000E94C0010E9463000E94FB010E94B4
S11300A016017894089541E050E060E070E083E444
S11300B090E00C94BE0040E050E060E070E083E427
S11300C090E00C94BE0041E050E060E070E083E416
S11300D090E00E946D000C945B00843409F43FC0EE
S11300E030F48234F1F060F5813461F008958236A1
S11300F0C1F018F4813631F00895833609F184365D
S113010071F108952AB381E090E001C0880F6A95E7
S1130110EAF7413011F4822B02C0809582238ABB16
S1130120089527B381E090E001C0880F6A95EAF74B
S1130130413011F4822B02C08095822387BB08953D
S113014024B381E090E001C0880F6A95EAF741305A
S113015011F4822B02C08095822384BB089521B3BD
S113016081E090E001C0880F6A95EAF7413011F40C
S1130170822B02C08095822381BB0895843409F4C4
S11301803FC030F48234F1F060F5813461F00895B9
S11301908236C1F018F4813631F00895833609F1BE
S11301A0843671F108952BB381E090E001C0880F8B
S11301B06A95EAF7413011F4822B02C080958223BC
S11301C08BBB089528B381E090E001C0880F6A9545
S11301D0EAF7413011F4822B02C08095822388BB58
S11301E0089525B381E090E001C0880F6A95EAF78D
S11301F0413011F4822B02C08095822385BB08957F
S113020022B381E090E001C0880F6A95EAF741309B
S113021011F4822B02C08095822382BB08951CBCFA
S11302201DBC109262001DBC1CBC089589B741E03E
S113023062E00E94BE008FB540E060E00E94BE0014
S11302408FB540E061E00E94BE008EB540E063E0FF
S11302500E94BE008EB540E064E00E94BE008EB5F0
S113026041E060E00E94BE008EB541E061E00E9482
S1130270BE008EB540E062E00E94BE000C940F0107
S11302801F920F920FB60F9211242F934F935F93E7
S11302908F939F93EF93FF93F8942CB14091630055
S11302A05091640080916500909166004817590749
S11302B0B0F42032A1F08091630090916400E09149
S11302C06700F0916800E80FF91F208380916300B4
S11302D090916400019690936400809363007894F5
S11302E0FF91EF919F918F915F914F912F910F907B
S11302F00FBE0F901F9018951F920F920FB60F927A
S113030011242F933F938F939F93EF93FF93F8942C
S11303108091690090916A00019690936A0080939D
S113032069002091690030916A0080916B0090917E
S11303306C002817390760F48091690090916A0075
S1130340E0916D00F0916E00E80FF91F80818CB987
S11303507894FF91EF919F918F913F912F910F90FE
S11303600FBE0F901F901895FC01808180BD818184
S113037089B982818BB983818AB9848180BD0895CA
S1130380CF93DF9300D000D01F92CDB7DEB783E3C5
S11303908A8319821B8288ED8C8386E88D83CE0143
S11303A001960E94B4010F900F900F900F900F9040
S11303B0DF91CF91089590936E0080936D007093B8
S11303C06C0060936B0010926A00109269005D9B50
S11303D0FECFFC0180818CB9089540916900509151
S11303E06A0020916B0030916C0081E04217530742
S11303F008F480E008950E941601109260000895A8
S1130400AF92BF92CF92DF92EF92FF920F931F931E
S1130410CF93DF93CDB7DEB727970FB6F894DEBF3F
S11304200FBECDBF80916000813091F038F08230F2
S113043009F450C0833009F484C087C01ABA2091EB
S11304407F0099B390937F0081E0291340C03CC0A2
S113045080916F00811102C00E940F011ABAE091CD
S11304606F0089B3F0E0E458FF4F8083E0916F00A0
S11304704CB55DB58CB59DB52091800084E0E89FB6
S1130480F0011124E059FF4F552730E0AFEFBFEFE3
S11304900E94BB02DC01CB01840F951FA11DB11D7D
S11304A043E0880F991FAA1FBB1F4A95D1F7808389
S11304B09183A283B38380916F008F5F80936F00D9
S11304C080916F00833010F480E001C082E080935B
S11304D060003BC08CE7E82E80E0F82E00E710E0D7
S11304E09CE7C92E90E0D92E20E4B22E3BE3A32E44
S11304F0B982F70181917F01805D8A83F80181913E
S11305009191A191B1918F0120E32B0F2B8320E3D3
S11305102A0F2C8320E3290F2D83805D8E83AF82E5
S113052067E070E0CE0101960E94DB010E94ED01BC
S11305308823E1F30E945300C016D106C9F6109235
S11305406F00109260000E940F0127960FB6F89476
S1130550DEBF0FBECDBFDF91CF911F910F91FF90F2
S1130560EF90DF90CF90BF90AF9008950E94490024
S11305700E940002FDCFA29FB001B39FC001A39FC0
S1130580700D811D1124911DB29F700D811D1124C8
S10B0590911D0895F894FFCFBA
S105059801005C
S9030000FC
