:100000000C9472000C948F000C948F000C948F0051
:100010000C948F000C948F000C948F000C948F0024
:100020000C948F000C948F000C948F000C940D0294
:100030000C948F000C944B020C948F000C948F0046
:100040000C948F000C948F000C948F000C948F00F4
:100050000C948F00090122013B0154016C016C01D9
:100060006C016C016C016C016C016C016C016C0128
:100070006C016C016C016C016C016C016C016C0118
:100080006C016C016C016C016C016C016C016C0108
:100090006C016C01090122013B01540179019201BB
:1000A000AB01C401DC01DC01DC01DC01DC01DC01B1
:1000B000DC01DC01DC01DC01DC01DC01DC01DC0158
:1000C000DC01DC01DC01DC01DC01DC01DC01DC0148
:1000D000DC01DC01DC01DC01DC01DC0179019201E5
:1000E000AB01C40111241FBECFE5D4E0DEBFCDBFFC
:1000F00010E0A0E6B0E0E0EEF9E002C005900D925D
:10010000A236B107D9F722E0A2E6B0E001C01D9205
:10011000AE36B207E1F70E94AA030C94EE040C94E9
:1001200000000E948F020E94F2000E9401030E94C0
:10013000E2017894089541E050E060E070E082E4EC
:1001400090E00E946D01089540E050E060E070E0B2
:1001500082E490E00E946D01089541E050E060E08B
:1001600070E082E490E00E946D012FE986E891E062
:10017000215080409040E1F700C0000040E050E096
:1001800060E070E082E490E00E946D012FE986E873
:1001900091E0215080409040E1F700C0000041E034
:1001A00050E060E070E082E490E00E946D012FE991
:1001B00086E891E0215080409040E1F700C00000C7
:1001C00040E050E060E070E082E490E00E946D0169
:1001D0002FE986E891E0215080409040E1F700C08F
:1001E0000000089541E050E060E070E082E490E0BB
:1001F0000E94FD000E94A400089590E0FC01E154DB
:10020000F109E432F10508F067C0E65DFF4F0C9498
:10021000D904413059F42AB381E090E002C0880F3C
:10022000991F6A95E2F7822B8ABB08952AB381E071
:1002300090E002C0880F991F6A95E2F780958223AB
:100240008ABB0895413059F427B381E090E002C0A1
:10025000880F991F6A95E2F7822B87BB089527B311
:1002600081E090E002C0880F991F6A95E2F78095BF
:10027000822387BB0895413059F424B381E090E094
:1002800002C0880F991F6A95E2F7822B84BB0895FC
:1002900024B381E090E002C0880F991F6A95E2F7CD
:1002A0008095822384BB0895413059F421B381E0C5
:1002B00090E002C0880F991F6A95E2F7822B81BBFC
:1002C000089521B381E090E002C0880F991F6A95DC
:1002D000E2F78095822381BB089590E0FC01E15410
:1002E000F109E432F10508F067C0E25BFF4F0C94BE
:1002F000D904413059F42BB381E090E002C0880F5B
:10030000991F6A95E2F7822B8BBB08952BB381E08E
:1003100090E002C0880F991F6A95E2F780958223CA
:100320008BBB0895413059F428B381E090E002C0BE
:10033000880F991F6A95E2F7822B88BB089528B32E
:1003400081E090E002C0880F991F6A95E2F78095DE
:10035000822388BB0895413059F425B381E090E0B1
:1003600002C0880F991F6A95E2F7822B85BB08951A
:1003700025B381E090E002C0880F991F6A95E2F7EB
:100380008095822385BB0895413059F422B381E0E2
:1003900090E002C0880F991F6A95E2F7822B82BB1A
:1003A000089522B381E090E002C0880F991F6A95FA
:1003B000E2F78095822382BB08951CBC1DBC10927D
:1003C0006200089589B741E062E00E946D018FB537
:1003D00040E060E00E946D018FB540E061E00E9466
:1003E0006D018EB540E063E00E946D018EB540E086
:1003F00064E00E946D018EB541E060E00E946D01F5
:100400008EB541E061E00E946D018EB540E062E092
:100410000E946D010E94DD0108951F920F920FB698
:100420000F9211242F933F934F935F938F939F933A
:10043000EF93FF93F8948CB1409163005091640066
:10044000209165003091660042175307B0F4803266
:10045000A1F02091630030916400E0916700F09179
:100460006800E20FF31F8083809163009091640025
:10047000019690936400809363007894FF91EF91CC
:100480009F918F915F914F913F912F910F900FBE50
:100490000F901F9018951F920F920FB60F92112474
:1004A0002F933F938F939F93EF93FF93F8948091B3
:1004B000690090916A00019690936A0080936900A8
:1004C0002091690030916A0080916B0090916C00DE
:1004D0002817390760F48091690090916A00E091D3
:1004E0006D00F0916E00E80FF91F80818CB978944F
:1004F000FF91EF919F918F913F912F910F900FBEA0
:100500000F901F901895FC01808180BD818189B971
:1005100082818BB983818AB9848180BD0895CF930C
:10052000DF9300D000D01F92CDB7DEB783E38A837C
:1005300019821B8288ED8C8386E88D83CE0101961B
:100540000E9483020F900F900F900F900F90DF91F9
:10055000CF91089590936E0080936D0070936C001E
:1005600060936B0010926A00109269005D9BFECF51
:10057000FC0180818CB90895909368008093670096
:10058000709366006093650010926400109263009F
:1005900008954091690050916A0020916B0030915C
:1005A0006C0081E04217530708F480E00895409101
:1005B000630050916400209165003091660081E0F5
:1005C0004217530708F480E008958CB54DB550E00C
:1005D000542F4427482B20916D0230E0AFEFBFEF3E
:1005E0000E94DF04640F751F811D911D0E94E003AE
:1005F0002DEB37E346E057E30E9444040E94AF032B
:10060000089581E08093600008950F931F93CF9326
:10061000C0916000C130D1F030F0C230F1F1C33090
:1006200009F48DC093C017BA40916B0250916C02CF
:1006300086B390E090936C0280936B0221E04817A0
:10064000590709F420E02093600080C00E949B00BD
:1006500017BAE0917600F0E086B3E95FFD4F808342
:100660000091760010E00E94E502F801EE0FFF1FF6
:10067000EE0FFF1FE958FF4F6083718382839383DE
:10068000809176008F5F809376008091760084362B
:1006900008F0C2E0C093600059C00E94AD00C0E005
:1006A00045C0EFE6F0E080E48083AC2FB0E0A95FC6
:1006B000BD4F8C918183A0917600B0E0AA0FBB1F43
:1006C000AA0FBB1FA958BF4F13968C918283A0918C
:1006D0007600B0E0AA0FBB1FAA0FBB1FA958BF4FDF
:1006E00012968C918383A0917600B0E0AA0FBB1F75
:1006F000AA0FBB1FA958BF4F11968C918483A0915C
:100700007600B0E0AA0FBB1FAA0FBB1FA958BF4FAE
:100710008C9185838BE3868367E070E0CF010E9434
:10072000AA020E94C9028823E1F3CF5FC43608F40D
:10073000B8CF61E070E08EE490E00E94BC020E94BD
:10074000A4000E94D70283E080936000CF911F91A4
:100750000F9108950E9491000E940503FDCF0E9411
:10076000230488F09F5798F0B92F9927B751B0F01C
:10077000E1F0660F771F881F991F1AF0BA95C9F725
:1007800014C0B13091F00E943D04B1E008950C9482
:100790003D04672F782F8827B85F39F0B93FCCF335
:1007A000869577956795B395D9F73EF490958095A2
:1007B000709561957F4F8F4F9F4F0895E89409C0C2
:1007C00097FB3EF490958095709561957F4F8F4F84
:1007D0009F4F9923A9F0F92F96E9BB279395F6959A
:1007E000879577956795B795F111F8CFFAF4BB0F18
:1007F00011F460FF1BC06F5F7F4F8F4F9F4F16C07C
:10080000882311F096E911C0772321F09EE8872F05
:10081000762F05C0662371F096E8862F70E060E0C1
:100820002AF09A95660F771F881FDAF7880F96953A
:10083000879597F9089557FD9058440F551F59F023
:100840005F3F71F04795880F97FB991F61F09F3FBD
:1008500079F087950895121613061406551FF2CFE6
:100860004695F1DF08C0161617061806991FF1CF36
:1008700086957105610508940895E894BB2766275D
:100880007727CB0197F908950E9457040C94C80468
:100890000E94BA0438F00E94C10420F0952311F0A0
:1008A0000C94B1040C94B70411240C943E040E94DF
:1008B0001B0470F3959FC1F3950F50E0551F629F85
:1008C000F001729FBB27F00DB11D639FAA27F00DA9
:1008D000B11DAA1F649F6627B00DA11D661F829FD0
:1008E0002227B00DA11D621F739FB00DA11D621FB5
:1008F000839FA00D611D221F749F3327A00D611DD2
:10090000231F849F600D211D822F762F6A2F1124B3
:100910009F5750409AF0F1F088234AF0EE0FFF1FE6
:10092000BB1F661F771F881F91505040A9F79E3F3D
:10093000510580F00C94B1040C943E045F3FE4F345
:10094000983ED4F3869577956795B795F795E79593
:100950009F5FC1F7FE2B880F911D9695879597F99C
:10096000089597F99F6780E870E060E008959FEF31
:1009700080EC089500240A94161617061806090636
:10098000089500240A941216130614060506089505
:10099000092E0394000C11F4882352F0BB0F40F48D
:1009A000BF2B11F460FF04C06F5F7F4F8F4F9F4FCD
:1009B0000895EE0FFF1F0590F491E02D0994A29F7A
:1009C000B001B39FC001A39F700D811D1124911D23
:1009D000B29F700D811D1124911D0895F894FFCFD1
:0209E000010014
:00000001FF
